{
  "_format": "hh-sol-artifact-1",
  "contractName": "Dappazon",
  "sourceName": "contracts/Dappazon.sol",
  "abi": [
    {
      "inputs": [],
      "stateMutability": "nonpayable",
      "type": "constructor"
    },
    {
      "anonymous": false,
      "inputs": [
        {
          "indexed": false,
          "internalType": "address",
          "name": "buyer",
          "type": "address"
        },
        {
          "indexed": false,
          "internalType": "uint256",
          "name": "orderId",
          "type": "uint256"
        },
        {
          "indexed": false,
          "internalType": "uint256",
          "name": "itemId",
          "type": "uint256"
        }
      ],
      "name": "Buy",
      "type": "event"
    },
    {
      "anonymous": false,
      "inputs": [
        {
          "indexed": false,
          "internalType": "string",
          "name": "name",
          "type": "string"
        },
        {
          "indexed": false,
          "internalType": "uint256",
          "name": "cost",
          "type": "uint256"
        },
        {
          "indexed": false,
          "internalType": "uint256",
          "name": "quantity",
          "type": "uint256"
        }
      ],
      "name": "List",
      "type": "event"
    },
    {
      "anonymous": false,
      "inputs": [
        {
          "indexed": false,
          "internalType": "uint256",
          "name": "itemId",
          "type": "uint256"
        },
        {
          "indexed": false,
          "internalType": "string",
          "name": "name",
          "type": "string"
        },
        {
          "indexed": false,
          "internalType": "uint256",
          "name": "cost",
          "type": "uint256"
        },
        {
          "indexed": false,
          "internalType": "uint256",
          "name": "stock",
          "type": "uint256"
        }
      ],
      "name": "Update",
      "type": "event"
    },
    {
      "inputs": [
        {
          "internalType": "uint256",
          "name": "_id",
          "type": "uint256"
        }
      ],
      "name": "buy",
      "outputs": [],
      "stateMutability": "payable",
      "type": "function"
    },
    {
      "inputs": [],
      "name": "itemCount",
      "outputs": [
        {
          "internalType": "uint256",
          "name": "",
          "type": "uint256"
        }
      ],
      "stateMutability": "view",
      "type": "function"
    },
    {
      "inputs": [
        {
          "internalType": "uint256",
          "name": "",
          "type": "uint256"
        }
      ],
      "name": "items",
      "outputs": [
        {
          "internalType": "uint256",
          "name": "id",
          "type": "uint256"
        },
        {
          "internalType": "string",
          "name": "name",
          "type": "string"
        },
        {
          "internalType": "string",
          "name": "category",
          "type": "string"
        },
        {
          "internalType": "string",
          "name": "image",
          "type": "string"
        },
        {
          "internalType": "uint256",
          "name": "cost",
          "type": "uint256"
        },
        {
          "internalType": "uint256",
          "name": "rating",
          "type": "uint256"
        },
        {
          "internalType": "uint256",
          "name": "stock",
          "type": "uint256"
        }
      ],
      "stateMutability": "view",
      "type": "function"
    },
    {
      "inputs": [
        {
          "internalType": "uint256",
          "name": "_id",
          "type": "uint256"
        },
        {
          "internalType": "string",
          "name": "_name",
          "type": "string"
        },
        {
          "internalType": "string",
          "name": "_category",
          "type": "string"
        },
        {
          "internalType": "string",
          "name": "_image",
          "type": "string"
        },
        {
          "internalType": "uint256",
          "name": "_cost",
          "type": "uint256"
        },
        {
          "internalType": "uint256",
          "name": "_rating",
          "type": "uint256"
        },
        {
          "internalType": "uint256",
          "name": "_stock",
          "type": "uint256"
        }
      ],
      "name": "list",
      "outputs": [],
      "stateMutability": "nonpayable",
      "type": "function"
    },
    {
      "inputs": [
        {
          "internalType": "address",
          "name": "",
          "type": "address"
        }
      ],
      "name": "orderCount",
      "outputs": [
        {
          "internalType": "uint256",
          "name": "",
          "type": "uint256"
        }
      ],
      "stateMutability": "view",
      "type": "function"
    },
    {
      "inputs": [
        {
          "internalType": "address",
          "name": "",
          "type": "address"
        },
        {
          "internalType": "uint256",
          "name": "",
          "type": "uint256"
        }
      ],
      "name": "orders",
      "outputs": [
        {
          "internalType": "uint256",
          "name": "time",
          "type": "uint256"
        },
        {
          "components": [
            {
              "internalType": "uint256",
              "name": "id",
              "type": "uint256"
            },
            {
              "internalType": "string",
              "name": "name",
              "type": "string"
            },
            {
              "internalType": "string",
              "name": "category",
              "type": "string"
            },
            {
              "internalType": "string",
              "name": "image",
              "type": "string"
            },
            {
              "internalType": "uint256",
              "name": "cost",
              "type": "uint256"
            },
            {
              "internalType": "uint256",
              "name": "rating",
              "type": "uint256"
            },
            {
              "internalType": "uint256",
              "name": "stock",
              "type": "uint256"
            }
          ],
          "internalType": "struct Dappazon.Item",
          "name": "item",
          "type": "tuple"
        },
        {
          "internalType": "address",
          "name": "buyer",
          "type": "address"
        }
      ],
      "stateMutability": "view",
      "type": "function"
    },
    {
      "inputs": [],
      "name": "owner",
      "outputs": [
        {
          "internalType": "address",
          "name": "",
          "type": "address"
        }
      ],
      "stateMutability": "view",
      "type": "function"
    },
    {
      "inputs": [
        {
          "internalType": "uint256",
          "name": "_id",
          "type": "uint256"
        },
        {
          "internalType": "uint256",
          "name": "_stock",
          "type": "uint256"
        }
      ],
      "name": "setStock",
      "outputs": [],
      "stateMutability": "nonpayable",
      "type": "function"
    },
    {
      "inputs": [
        {
          "internalType": "uint256",
          "name": "_id",
          "type": "uint256"
        },
        {
          "internalType": "string",
          "name": "_name",
          "type": "string"
        },
        {
          "internalType": "string",
          "name": "_category",
          "type": "string"
        },
        {
          "internalType": "string",
          "name": "_image",
          "type": "string"
        },
        {
          "internalType": "uint256",
          "name": "_cost",
          "type": "uint256"
        },
        {
          "internalType": "uint256",
          "name": "_rating",
          "type": "uint256"
        },
        {
          "internalType": "uint256",
          "name": "_stock",
          "type": "uint256"
        }
      ],
      "name": "updateItem",
      "outputs": [],
      "stateMutability": "nonpayable",
      "type": "function"
    },
    {
      "inputs": [],
      "name": "withdraw",
      "outputs": [],
      "stateMutability": "nonpayable",
      "type": "function"
    }
  ],
  "bytecode": "0x608060405234801561001057600080fd5b50336000806101000a81548173ffffffffffffffffffffffffffffffffffffffff021916908373ffffffffffffffffffffffffffffffffffffffff160217905550611df6806100606000396000f3fe6080604052600436106100915760003560e01c80638da5cb5b116100595780638da5cb5b1461017d578063bfb231d2146101a8578063d96a094a146101eb578063eb65559114610207578063eea8a7e81461023057610091565b8063210f9a7c146100965780633ccfd60b146100bf5780636bfb0d01146100d6578063713d856b14610101578063793b8c6d1461013e575b600080fd5b3480156100a257600080fd5b506100bd60048036038101906100b891906112c2565b610259565b005b3480156100cb57600080fd5b506100d4610409565b005b3480156100e257600080fd5b506100eb6104fb565b6040516100f891906113c7565b60405180910390f35b34801561010d57600080fd5b5061012860048036038101906101239190611440565b610501565b60405161013591906113c7565b60405180910390f35b34801561014a57600080fd5b506101656004803603810190610160919061146d565b610519565b604051610174939291906115f4565b60405180910390f35b34801561018957600080fd5b50610192610758565b60405161019f9190611632565b60405180910390f35b3480156101b457600080fd5b506101cf60048036038101906101ca919061164d565b61077c565b6040516101e297969594939291906116c4565b60405180910390f35b6102056004803603810190610200919061164d565b610956565b005b34801561021357600080fd5b5061022e60048036038101906102299190611748565b610e50565b005b34801561023c57600080fd5b50610257600480360381019061025291906112c2565b610f88565b005b60008054906101000a900473ffffffffffffffffffffffffffffffffffffffff1673ffffffffffffffffffffffffffffffffffffffff163373ffffffffffffffffffffffffffffffffffffffff16146102b157600080fd5b600060026000898152602001908152602001600020600001540361030a576040517f08c379a0000000000000000000000000000000000000000000000000000000008152600401610301906117d4565b60405180910390fd5b60006040518060e0016040528089815260200188815260200187815260200186815260200185815260200184815260200183815250905080600260008a81526020019081526020016000206000820151816000015560208201518160010190816103749190611a00565b50604082015181600201908161038a9190611a00565b5060608201518160030190816103a09190611a00565b506080820151816004015560a0820151816005015560c082015181600601559050507f2cb94e367af31838c26299555f918435271e4a194dedde4c58dc0acc388738ea888886856040516103f79493929190611ad2565b60405180910390a15050505050505050565b60008054906101000a900473ffffffffffffffffffffffffffffffffffffffff1673ffffffffffffffffffffffffffffffffffffffff163373ffffffffffffffffffffffffffffffffffffffff161461046157600080fd5b60008060009054906101000a900473ffffffffffffffffffffffffffffffffffffffff1673ffffffffffffffffffffffffffffffffffffffff16476040516104a890611b4f565b60006040518083038185875af1925050503d80600081146104e5576040519150601f19603f3d011682016040523d82523d6000602084013e6104ea565b606091505b50509050806104f857600080fd5b50565b60015481565b60046020528060005260406000206000915090505481565b600360205281600052604060002060205280600052604060002060009150915050806000015490806001016040518060e00160405290816000820154815260200160018201805461056990611823565b80601f016020809104026020016040519081016040528092919081815260200182805461059590611823565b80156105e25780601f106105b7576101008083540402835291602001916105e2565b820191906000526020600020905b8154815290600101906020018083116105c557829003601f168201915b505050505081526020016002820180546105fb90611823565b80601f016020809104026020016040519081016040528092919081815260200182805461062790611823565b80156106745780601f1061064957610100808354040283529160200191610674565b820191906000526020600020905b81548152906001019060200180831161065757829003601f168201915b5050505050815260200160038201805461068d90611823565b80601f01602080910402602001604051908101604052809291908181526020018280546106b990611823565b80156107065780601f106106db57610100808354040283529160200191610706565b820191906000526020600020905b8154815290600101906020018083116106e957829003601f168201915b505050505081526020016004820154815260200160058201548152602001600682015481525050908060080160009054906101000a900473ffffffffffffffffffffffffffffffffffffffff16905083565b60008054906101000a900473ffffffffffffffffffffffffffffffffffffffff1681565b60026020528060005260406000206000915090508060000154908060010180546107a590611823565b80601f01602080910402602001604051908101604052809291908181526020018280546107d190611823565b801561081e5780601f106107f35761010080835404028352916020019161081e565b820191906000526020600020905b81548152906001019060200180831161080157829003601f168201915b50505050509080600201805461083390611823565b80601f016020809104026020016040519081016040528092919081815260200182805461085f90611823565b80156108ac5780601f10610881576101008083540402835291602001916108ac565b820191906000526020600020905b81548152906001019060200180831161088f57829003601f168201915b5050505050908060030180546108c190611823565b80601f01602080910402602001604051908101604052809291908181526020018280546108ed90611823565b801561093a5780601f1061090f5761010080835404028352916020019161093a565b820191906000526020600020905b81548152906001019060200180831161091d57829003601f168201915b5050505050908060040154908060050154908060060154905087565b6000600260008381526020019081526020016000206040518060e00160405290816000820154815260200160018201805461099090611823565b80601f01602080910402602001604051908101604052809291908181526020018280546109bc90611823565b8015610a095780601f106109de57610100808354040283529160200191610a09565b820191906000526020600020905b8154815290600101906020018083116109ec57829003601f168201915b50505050508152602001600282018054610a2290611823565b80601f0160208091040260200160405190810160405280929190818152602001828054610a4e90611823565b8015610a9b5780601f10610a7057610100808354040283529160200191610a9b565b820191906000526020600020905b815481529060010190602001808311610a7e57829003601f168201915b50505050508152602001600382018054610ab490611823565b80601f0160208091040260200160405190810160405280929190818152602001828054610ae090611823565b8015610b2d5780601f10610b0257610100808354040283529160200191610b2d565b820191906000526020600020905b815481529060010190602001808311610b1057829003601f168201915b50505050508152602001600482015481526020016005820154815260200160068201548152505090506000816000015103610b9d576040517f08c379a0000000000000000000000000000000000000000000000000000000008152600401610b94906117d4565b60405180910390fd5b8060800151341015610bae57600080fd5b60008160c0015111610bbf57600080fd5b600060405180606001604052804281526020018381526020013373ffffffffffffffffffffffffffffffffffffffff168152509050600460003373ffffffffffffffffffffffffffffffffffffffff1673ffffffffffffffffffffffffffffffffffffffff1681526020019081526020016000206000815480929190610c4490611b93565b919050555080600360003373ffffffffffffffffffffffffffffffffffffffff1673ffffffffffffffffffffffffffffffffffffffff1681526020019081526020016000206000600460003373ffffffffffffffffffffffffffffffffffffffff1673ffffffffffffffffffffffffffffffffffffffff16815260200190815260200160002054815260200190815260200160002060008201518160000155602082015181600101600082015181600001556020820151816001019081610d0b9190611a00565b506040820151816002019081610d219190611a00565b506060820151816003019081610d379190611a00565b506080820151816004015560a0820151816005015560c08201518160060155505060408201518160080160006101000a81548173ffffffffffffffffffffffffffffffffffffffff021916908373ffffffffffffffffffffffffffffffffffffffff16021790555090505060018260c00151610db39190611bdb565b60026000858152602001908152602001600020600601819055507f1cbc5ab135991bd2b6a4b034a04aa2aa086dac1371cb9b16b8b5e2ed6b036bed33600460003373ffffffffffffffffffffffffffffffffffffffff1673ffffffffffffffffffffffffffffffffffffffff168152602001908152602001600020548460000151604051610e4393929190611c0f565b60405180910390a1505050565b60008054906101000a900473ffffffffffffffffffffffffffffffffffffffff1673ffffffffffffffffffffffffffffffffffffffff163373ffffffffffffffffffffffffffffffffffffffff1614610ea857600080fd5b6000600260008481526020019081526020016000206000015403610f01576040517f08c379a0000000000000000000000000000000000000000000000000000000008152600401610ef8906117d4565b60405180910390fd5b8060026000848152602001908152602001600020600601819055507f2cb94e367af31838c26299555f918435271e4a194dedde4c58dc0acc388738ea8260026000858152602001908152602001600020600101600260008681526020019081526020016000206004015484604051610f7c9493929190611cca565b60405180910390a15050565b60008054906101000a900473ffffffffffffffffffffffffffffffffffffffff1673ffffffffffffffffffffffffffffffffffffffff163373ffffffffffffffffffffffffffffffffffffffff1614610fe057600080fd5b60008711611023576040517f08c379a000000000000000000000000000000000000000000000000000000000815260040161101a90611d62565b60405180910390fd5b60006040518060e0016040528089815260200188815260200187815260200186815260200185815260200184815260200183815250905080600260008a815260200190815260200160002060008201518160000155602082015181600101908161108d9190611a00565b5060408201518160020190816110a39190611a00565b5060608201518160030190816110b99190611a00565b506080820151816004015560a0820151816005015560c082015181600601559050506001548811156110ed57876001819055505b7ffdbe2a012c10ec01592653978eaa09b5ca60b143a0e617505b2ebcbd911ec5b887858460405161112093929190611d82565b60405180910390a15050505050505050565b6000604051905090565b600080fd5b600080fd5b6000819050919050565b61115981611146565b811461116457600080fd5b50565b60008135905061117681611150565b92915050565b600080fd5b600080fd5b6000601f19601f8301169050919050565b7f4e487b7100000000000000000000000000000000000000000000000000000000600052604160045260246000fd5b6111cf82611186565b810181811067ffffffffffffffff821117156111ee576111ed611197565b5b80604052505050565b6000611201611132565b905061120d82826111c6565b919050565b600067ffffffffffffffff82111561122d5761122c611197565b5b61123682611186565b9050602081019050919050565b82818337600083830152505050565b600061126561126084611212565b6111f7565b90508281526020810184848401111561128157611280611181565b5b61128c848285611243565b509392505050565b600082601f8301126112a9576112a861117c565b5b81356112b9848260208601611252565b91505092915050565b600080600080600080600060e0888a0312156112e1576112e061113c565b5b60006112ef8a828b01611167565b975050602088013567ffffffffffffffff8111156113105761130f611141565b5b61131c8a828b01611294565b965050604088013567ffffffffffffffff81111561133d5761133c611141565b5b6113498a828b01611294565b955050606088013567ffffffffffffffff81111561136a57611369611141565b5b6113768a828b01611294565b94505060806113878a828b01611167565b93505060a06113988a828b01611167565b92505060c06113a98a828b01611167565b91505092959891949750929550565b6113c181611146565b82525050565b60006020820190506113dc60008301846113b8565b92915050565b600073ffffffffffffffffffffffffffffffffffffffff82169050919050565b600061140d826113e2565b9050919050565b61141d81611402565b811461142857600080fd5b50565b60008135905061143a81611414565b92915050565b6000602082840312156114565761145561113c565b5b60006114648482850161142b565b91505092915050565b600080604083850312156114845761148361113c565b5b60006114928582860161142b565b92505060206114a385828601611167565b9150509250929050565b6114b681611146565b82525050565b600081519050919050565b600082825260208201905092915050565b60005b838110156114f65780820151818401526020810190506114db565b60008484015250505050565b600061150d826114bc565b61151781856114c7565b93506115278185602086016114d8565b61153081611186565b840191505092915050565b600060e08301600083015161155360008601826114ad565b506020830151848203602086015261156b8282611502565b915050604083015184820360408601526115858282611502565b9150506060830151848203606086015261159f8282611502565b91505060808301516115b460808601826114ad565b5060a08301516115c760a08601826114ad565b5060c08301516115da60c08601826114ad565b508091505092915050565b6115ee81611402565b82525050565b600060608201905061160960008301866113b8565b818103602083015261161b818561153b565b905061162a60408301846115e5565b949350505050565b600060208201905061164760008301846115e5565b92915050565b6000602082840312156116635761166261113c565b5b600061167184828501611167565b91505092915050565b600082825260208201905092915050565b6000611696826114bc565b6116a0818561167a565b93506116b08185602086016114d8565b6116b981611186565b840191505092915050565b600060e0820190506116d9600083018a6113b8565b81810360208301526116eb818961168b565b905081810360408301526116ff818861168b565b90508181036060830152611713818761168b565b905061172260808301866113b8565b61172f60a08301856113b8565b61173c60c08301846113b8565b98975050505050505050565b6000806040838503121561175f5761175e61113c565b5b600061176d85828601611167565b925050602061177e85828601611167565b9150509250929050565b7f4974656d206e6f74206c69737465640000000000000000000000000000000000600082015250565b60006117be600f8361167a565b91506117c982611788565b602082019050919050565b600060208201905081810360008301526117ed816117b1565b9050919050565b7f4e487b7100000000000000000000000000000000000000000000000000000000600052602260045260246000fd5b6000600282049050600182168061183b57607f821691505b60208210810361184e5761184d6117f4565b5b50919050565b60008190508160005260206000209050919050565b60006020601f8301049050919050565b600082821b905092915050565b6000600883026118b67fffffffffffffffffffffffffffffffffffffffffffffffffffffffffffffffff82611879565b6118c08683611879565b95508019841693508086168417925050509392505050565b6000819050919050565b60006118fd6118f86118f384611146565b6118d8565b611146565b9050919050565b6000819050919050565b611917836118e2565b61192b61192382611904565b848454611886565b825550505050565b600090565b611940611933565b61194b81848461190e565b505050565b5b8181101561196f57611964600082611938565b600181019050611951565b5050565b601f8211156119b45761198581611854565b61198e84611869565b8101602085101561199d578190505b6119b16119a985611869565b830182611950565b50505b505050565b600082821c905092915050565b60006119d7600019846008026119b9565b1980831691505092915050565b60006119f083836119c6565b9150826002028217905092915050565b611a09826114bc565b67ffffffffffffffff811115611a2257611a21611197565b5b611a2c8254611823565b611a37828285611973565b600060209050601f831160018114611a6a5760008415611a58578287015190505b611a6285826119e4565b865550611aca565b601f198416611a7886611854565b60005b82811015611aa057848901518255600182019150602085019450602081019050611a7b565b86831015611abd5784890151611ab9601f8916826119c6565b8355505b6001600288020188555050505b505050505050565b6000608082019050611ae760008301876113b8565b8181036020830152611af9818661168b565b9050611b0860408301856113b8565b611b1560608301846113b8565b95945050505050565b600081905092915050565b50565b6000611b39600083611b1e565b9150611b4482611b29565b600082019050919050565b6000611b5a82611b2c565b9150819050919050565b7f4e487b7100000000000000000000000000000000000000000000000000000000600052601160045260246000fd5b6000611b9e82611146565b91507fffffffffffffffffffffffffffffffffffffffffffffffffffffffffffffffff8203611bd057611bcf611b64565b5b600182019050919050565b6000611be682611146565b9150611bf183611146565b9250828203905081811115611c0957611c08611b64565b5b92915050565b6000606082019050611c2460008301866115e5565b611c3160208301856113b8565b611c3e60408301846113b8565b949350505050565b60008154611c5381611823565b611c5d818661167a565b94506001821660008114611c785760018114611c8e57611cc1565b60ff198316865281151560200286019350611cc1565b611c9785611854565b60005b83811015611cb957815481890152600182019150602081019050611c9a565b808801955050505b50505092915050565b6000608082019050611cdf60008301876113b8565b8181036020830152611cf18186611c46565b9050611d0060408301856113b8565b611d0d60608301846113b8565b95945050505050565b7f496e76616c696420696400000000000000000000000000000000000000000000600082015250565b6000611d4c600a8361167a565b9150611d5782611d16565b602082019050919050565b60006020820190508181036000830152611d7b81611d3f565b9050919050565b60006060820190508181036000830152611d9c818661168b565b9050611dab60208301856113b8565b611db860408301846113b8565b94935050505056fea2646970667358221220938ffded39029f593bee602a1e88f8d9233201b8f3b919ee25a1c5765bd84e3564736f6c63430008110033",
  "linkReferences": {},
  "deployedLinkReferences": {}
}